{
  "address": "0x5FbDB2315678afecb367f032d93F642f64180aa3",
  "abi": [
    {
      "inputs": [],
      "name": "purpose",
      "outputs": [
        {
          "internalType": "string",
          "name": "",
          "type": "string"
        }
      ],
      "stateMutability": "view",
      "type": "function"
    },
    {
      "inputs": [
        {
          "internalType": "string",
          "name": "_newPurpose",
          "type": "string"
        }
      ],
      "name": "setPurpose",
      "outputs": [],
      "stateMutability": "nonpayable",
      "type": "function"
    }
  ],
  "transactionHash": "0xef79e3603bc9194038a4256aa6b31f619b471a6ad2eabbd3671fffcdb349f006",
  "args": [],
  "numDeployments": 1,
  "solcInputHash": "769c73dbe46d29b41d8fba13a9a021a9",
  "bytecode": "0x608060405234801561001057600080fd5b506104a4806100206000396000f3fe608060405234801561001057600080fd5b50600436106100365760003560e01c806370740aab1461003b578063eb68757f14610059575b600080fd5b610043610075565b6040516100509190610259565b60405180910390f35b610073600480360381019061006e91906103c4565b610103565b005b600080546100829061043c565b80601f01602080910402602001604051908101604052809291908181526020018280546100ae9061043c565b80156100fb5780601f106100d0576101008083540402835291602001916100fb565b820191906000526020600020905b8154815290600101906020018083116100de57829003601f168201915b505050505081565b806000908051906020019061011992919061011d565b5050565b8280546101299061043c565b90600052602060002090601f01602090048101928261014b5760008555610192565b82601f1061016457805160ff1916838001178555610192565b82800160010185558215610192579182015b82811115610191578251825591602001919060010190610176565b5b50905061019f91906101a3565b5090565b5b808211156101bc5760008160009055506001016101a4565b5090565b600081519050919050565b600082825260208201905092915050565b60005b838110156101fa5780820151818401526020810190506101df565b83811115610209576000848401525b50505050565b6000601f19601f8301169050919050565b600061022b826101c0565b61023581856101cb565b93506102458185602086016101dc565b61024e8161020f565b840191505092915050565b600060208201905081810360008301526102738184610220565b905092915050565b6000604051905090565b600080fd5b600080fd5b600080fd5b600080fd5b7f4e487b7100000000000000000000000000000000000000000000000000000000600052604160045260246000fd5b6102d18261020f565b810181811067ffffffffffffffff821117156102f0576102ef610299565b5b80604052505050565b600061030361027b565b905061030f82826102c8565b919050565b600067ffffffffffffffff82111561032f5761032e610299565b5b6103388261020f565b9050602081019050919050565b82818337600083830152505050565b600061036761036284610314565b6102f9565b90508281526020810184848401111561038357610382610294565b5b61038e848285610345565b509392505050565b600082601f8301126103ab576103aa61028f565b5b81356103bb848260208601610354565b91505092915050565b6000602082840312156103da576103d9610285565b5b600082013567ffffffffffffffff8111156103f8576103f761028a565b5b61040484828501610396565b91505092915050565b7f4e487b7100000000000000000000000000000000000000000000000000000000600052602260045260246000fd5b6000600282049050600182168061045457607f821691505b602082108114156104685761046761040d565b5b5091905056fea264697066735822122066c9a7ca1a445becce6e7760a1323663760c305e1ad5226ce8784f5abe2591bc64736f6c63430008090033",
  "devdoc": {
    "kind": "dev",
    "methods": {},
    "version": 1
  },
  "userdoc": {
    "kind": "user",
    "methods": {},
    "version": 1
  },
  "storageLayout": {
    "storage": [
      {
        "astId": 4,
        "contract": "contracts/Lock.sol:Lock",
        "label": "purpose",
        "offset": 0,
        "slot": "0",
        "type": "t_string_storage"
      }
    ],
    "types": {
      "t_string_storage": {
        "encoding": "bytes",
        "label": "string",
        "numberOfBytes": "32"
      }
    }
  }
}